:02000000F729DE
:100010008207E029E029E029E029E029E029E02918
:10002000E029E029E029E029E029E029E029E02988
:10003000E029E029E029E029E029E029E029E02978
:10004000E029E029E029E029E029AE29B029B429F6
:10005000B829BC29C029C429C829CC29D029D42928
:10006000D829DC29E029E029E029D829DC29E02960
:10007000E029E029D829DC29E029E029E029D8294C
:10008000DC29E029E029E029E029E029E029E0292C
:10009000E029E029E029E029E029E029E029E02918
:1000A000E029E029E029E029E029E029E029E02908
:1000B000E029E029E029E029E029E029E029E029F8
:1000C000E029E029E029E029E029E029E029E029E8
:1000D000E029E029E029E029E029E029E029E029D8
:1000E000E029E029E029E029E029E029E029E029C8
:1000F000E029E029E029E029E029E029E029E029B8
:10010000E029E029E029E029E029E029E029E029A7
:02011000E029E4
:1001E00021001A1BF0282100EB30990021009A1AF7
:1001F000F728210000309E00230000308C002100F1
:1002000000308C0027000030910027000030920061
:10021000270000308C00260000308C002000FF30CA
:100220008C00210000308D00230000308D00240060
:1002300000308D00250000308D00260000308D003C
:100240002700003094002700003095002700003080
:1002500096002000FF308D00220000308E0021002B
:1002600018308E00240000308E00250018308E00DB
:10027000260000308E0027008E012000E1308E0025
:10028000270000309D00270000309E002100003034
:100290009500200000308B002100033091002100E8
:1002A0000030920008002400003092002400151253
:1002B00021008E150E1624003E309500240081305A
:1002C000960024000B309700240080309400240016
:1002D000FE30930008002000911D9329240014197A
:1002E0007829941A7929240011082000F001932913
:1002F00093292000F0188C297018852924001108F2
:100300002000F1002000701493292400110820001F
:10031000F20020007010F014240011082000F300F7
:1003200020007010F0102400151620009111080014
:1003300020000E1120009119A329982920008E1465
:100340002000F00108002000F0016B21711AA9299A
:1003500098297208082820000E150800E221982923
:1003600020000D10E221982920008E13E221982907
:1003700020000E13E221982920008E12E2219829F4
:1003800020000D12E221982920008D11E2219829E8
:1003900020000D11E221982920008D10E2219829DA
:1003A00020008C11E221982920000C11E2219829CB
:1003B00020008C10E221982920000C10E2219829BD
:1003C000E221982920009119E629E2292000F00174
:1003D0006B21711AE629EC292000FF308C002000E7
:1003E000FF308D002000FB308E00AB210800F02094
:0603F00053219E21982913
:020000040001F9
:04000E00E401FF18F2
:00000001FF
