:02000000DA29FB
:02000800992934
:100010008207CF29CF29CF29CF29CF29CF29CF298F
:10002000CF29CF29CF29CF29CF29CF29CF29CF2910
:10003000CF29CF29CF29CF29CF29CF29CF29CF2900
:10004000CF29CF29CF29CF29CF29AA29AB29AE295A
:10005000B129B429B729BA29BD29C029C329C6297C
:10006000C929CC29CF29CF29CF29C929CC29CF29E2
:10007000CF29CF29C929CC29CF29CF29CF29C929CF
:10008000CC29CF29CF29CF29CF29CF29CF29CF29B3
:10009000CF29CF29CF29CF29CF29CF29CF29CF29A0
:1000A000CF29CF29CF29CF29CF29CF29CF29CF2990
:1000B000CF29CF29CF29CF29CF29CF29CF29CF2980
:1000C000CF29CF29CF29CF29CF29CF29CF29CF2970
:1000D000CF29CF29CF29CF29CF29CF29CF29CF2960
:1000E000CF29CF29CF29CF29CF29CF29CF29CF2950
:1000F000CF29CF29CF29CF29CF29CF29CF29CF2940
:10010000CF29CF29CF29CF29CF29CF29CF29CF292F
:02011000CF29F5
:1001E00021001A1BF12821009901783099009913F8
:1001F00021009A1AF928210000309E0023000030C7
:100200008C00210000308C00270000309100270076
:1002100000309200270000308C00260000308C0057
:100220002000FF308C00210000308D0023000030C2
:100230008D00240000308D00250000308D00260048
:1002400000308D002700003094002700003095001A
:100250002700003096002000FF308D002200003083
:100260008E00210018308E00240000308E00250002
:1002700018308E00260000308E0027008E012000EE
:10028000E1308E00270000309D00270000309E00E6
:100290002100003095002000C0308B002100083084
:1002A0009100210000309200080024001512210066
:1002B0008E150E16240036309500240081309600ED
:1002C0002400083097002400803094002400FE3081
:1002D000930008002000911D90292400141977290B
:1002E000941A7829240011082000F00190299029FF
:1002F000F01887297018812924001108F100701462
:10030000902924001108F2007010F0149029F301D4
:1003100024001108F3007010F01020000E15902931
:100320002000911124001516080020000E19A229A2
:100330009529F5000808F400D0216A217408880086
:100340007508090020000E11711AA829D0219529DD
:1003500072080828952920000D10952920008E1379
:10036000952920000E13952920008E129529200032
:100370000D12952920008D11952920000D11952928
:1003800020008D10952920008C11952920000C113A
:10039000952920008C10952920000C10952995296D
:1003A0002000FF308C002000FF308D002000FB304B
:1003B0008E000800F0205521DE21952920008E14A2
:0203C000080033
:020000040001F9
:04000E00E401FF18F2
:00000001FF
