:02000000A7292E
:02000800572976
:10001000820792299229922992299229922992293A
:1000200092299229922992299229922992299229F8
:1000300092299229922992299229922992299229E8
:100040009229922992299229922960296229662966
:100050006A296E29722976297A297E298229862998
:100060008A298E299229922992298A298E299229D0
:10007000922992298A298E299229922992298A29BC
:100080008E2992299229922992299229922992299C
:100090009229922992299229922992299229922988
:1000A0009229922992299229922992299229922978
:1000B0009229922992299229922992299229922968
:1000C0009229922992299229922992299229922958
:1000D0009229922992299229922992299229922948
:1000E0009229922992299229922992299229922938
:1000F0009229922992299229922992299229922928
:100100009229922992299229922992299229922917
:02011000922932
:1001E00021001A1BF0282100EB30990021009A1AF7
:1001F000F728210000309E00230000308C002100F1
:1002000000308C0027000030910027000030920061
:10021000270000308C00260000308C002000FF30CA
:100220008C00210000308D00230000308D00240060
:1002300000308D00250000308D00260000308D003C
:100240002700003094002700003095002700003080
:1002500096002000FF308D00220000308E0021002B
:1002600018308E00240000308E00250018308E00DB
:10027000260000308E0027008E012000E1308E0025
:10028000270000309D00270000309E002100003034
:1002900095002000C0308B00210008309100210023
:1002A00000309200080020000E1959295329E4213A
:1002B000090020000E11711A5E29532973080828BD
:1002C0009421532920000D109421532920008E13CE
:1002D0009421532920000E139421532920008E12BB
:1002E0009421532920000D129421532920008D11AF
:1002F0009421532920000D119421532920008D10A1
:100300009421532920008C119421532920000C1191
:100310009421532920008C109421532920000C1083
:10032000942153299421532920000E1998299429A6
:1003300020000E11711A98299D292000FF308C0091
:100340002000FF308D002000FB308E000800F020E0
:10035000B121AB21532920008E14080020000E1576
:10036000080027008E0126008E01250018308E001F
:1003700024008E01203092003630950081309600A6
:100380000B30970080309400FE3093009D012300D5
:100390008E012200210018308E00803095001A1B3B
:1003A000CF29783099009A1AD3290830910020007B
:1003B000F9308E00A001A101F001F101F201F30179
:1003C000F401F501F6010800A1000808A000911948
:1003D000F129200091112400151620088800210819
:1003E00008000E15240011081418F429941EE92998
:1003F0002000FD00053070060319272A043070061E
:100400000319232A0330700603191F2A02307006CD
:1004100003191B2A013070060319172A0030F00651
:100420000319132AE9297D08F100F00AE9297D085A
:10043000F200F00AE9297D08F300F00AE9297D08B5
:10044000F400F00AE9297D08F500F00AE9297D08A1
:0A045000F600F00120000E15E92966
:020000040001F9
:04000E00E401FF18F2
:00000001FF
