:02000000F129E4
:02000800A1292C
:100010008207E329E329E329E329E329E329E32903
:10002000E329E329E329E329E329E329E329E32970
:10003000E329E329E329E329E329E329E329E32960
:10004000E329E329E329E329E329B129B329B729DE
:10005000BB29BF29C329C729CB29CF29D329D72910
:10006000DB29DF29E329E329E329DB29DF29E32948
:10007000E329E329DB29DF29E329E329E329DB2934
:10008000DF29E329E329E329E329E329E329E32914
:10009000E329E329E329E329E329E329E329E32900
:1000A000E329E329E329E329E329E329E329E329F0
:1000B000E329E329E329E329E329E329E329E329E0
:1000C000E329E329E329E329E329E329E329E329D0
:1000D000E329E329E329E329E329E329E329E329C0
:1000E000E329E329E329E329E329E329E329E329B0
:1000F000E329E329E329E329E329E329E329E329A0
:10010000E329E329E329E329E329E329E329E3298F
:02011000E329E1
:1001E00021001A1BF0282100EB30990021009A1AF7
:1001F000F728210000309E00230000308C002100F1
:1002000000308C0027000030910027000030920061
:10021000270000308C00260000308C002000FF30CA
:100220008C00210000308D00230000308D00240060
:1002300000308D00250000308D00260000308D003C
:100240002700003094002700003095002700003080
:1002500096002000FF308D00220000308E0021002B
:1002600018308E00240000308E00250018308E00DB
:10027000260000308E0027008E012000E1308E0025
:10028000270000309D00270000309E002100003034
:100290009500200000308B002100033091002100E8
:1002A0000030920008002400003092002400151253
:1002B00021008E150E1624003E309500240081305A
:1002C000960024000B309700240080309400240016
:1002D000FE30930008002000911D9329240014197A
:1002E0007829941A7929240011082000F001932913
:1002F00093292000F0188C297018852924001108F2
:100300002000F1002000701493292400110820001F
:10031000F20020007010F014240011082000F300F7
:1003200020007010F0102400151620009111080014
:1003300020000E1120009119AC21982920008E1464
:100340000800F40020000808F500711AA7297508B4
:1003500020008800740809006B2120000E15720827
:100360000828E421080020000D10E42108002000E6
:100370008E13E421080020000E13E4210800200061
:100380008E12E421080020000D12E4210800200054
:100390008D11E421080020000D11E4210800200047
:1003A0008D10E421080020008C11E42108002000B9
:1003B0000C11E421080020008C10E421080020002A
:1003C0000C10E4210800E421711AE429E729200037
:1003D000FF308C002000FF308D002000FF308E00A9
:0A03E0000800F02053219E21982907
:020000040001F9
:04000E00E401FF18F2
:00000001FF
