:02000000EF29E6
:02000800992934
:100010008207DA29DA29DA29DA29DA29DA29DA2942
:10002000DA29DA29DA29DA29DA29DA29DA29DA29B8
:10003000DA29DA29DA29DA29DA29DA29DA29DA29A8
:10004000DA29DA29DA29DA29DA29A829AA29AE2926
:10005000B229B629BA29BE29C229C629CA29CE2958
:10006000D229D629DA29DA29DA29D229D629DA2990
:10007000DA29DA29D229D629DA29DA29DA29D2297C
:10008000D629DA29DA29DA29DA29DA29DA29DA295C
:10009000DA29DA29DA29DA29DA29DA29DA29DA2948
:1000A000DA29DA29DA29DA29DA29DA29DA29DA2938
:1000B000DA29DA29DA29DA29DA29DA29DA29DA2928
:1000C000DA29DA29DA29DA29DA29DA29DA29DA2918
:1000D000DA29DA29DA29DA29DA29DA29DA29DA2908
:1000E000DA29DA29DA29DA29DA29DA29DA29DA29F8
:1000F000DA29DA29DA29DA29DA29DA29DA29DA29E8
:10010000DA29DA29DA29DA29DA29DA29DA29DA29D7
:02011000DA29EA
:1001E00021001A1BF12821009901783099009913F8
:1001F00021009A1AF928210000309E0023000030C7
:100200008C00210000308C00270000309100270076
:1002100000309200270000308C00260000308C0057
:100220002000FF308C00210000308D0023000030C2
:100230008D00240000308D00250000308D00260048
:1002400000308D002700003094002700003095001A
:100250002700003096002000FF308D002200003083
:100260008E00210018308E00240000308E00250002
:1002700018308E00260000308E0027008E012000EE
:10028000E1308E00270000309D00270000309E00E6
:100290002100003095002000C0308B002100083084
:1002A0009100210000309200080024001512210066
:1002B0008E150E16240036309500240081309600ED
:1002C0002400083097002400803094002400FE3081
:1002D000930008002000911D90292400141977290B
:1002E000941A7829240011082000F00190299029FF
:1002F000F01887297018812924001108F100701462
:10030000902924001108F2007010F0149029F301D4
:1003100024001108F3007010F01020000E15902931
:100320002000911124001516080020000E19A129A3
:100330009529F5000808F4006A21740888007508FA
:10034000090020000E11711AA629952973080828A2
:10035000DC21952920000D10DC21952920008E1329
:10036000DC21952920000E13DC21952920008E1216
:10037000DC21952920000D12DC21952920008D110A
:10038000DC21952920000D11DC21952920008D10FC
:10039000DC21952920008C11DC21952920000C11ED
:1003A000DC21952920008C10DC21952920000C10DF
:1003B000DC219529DC21952920000E19E029DC2972
:1003C00020000E11711AE029E5292000FF308C0071
:1003D0002000FF308D002000FB308E000800F02050
:1003E0005521F321952920008E14080020000E15B8
:0203F000080003
:020000040001F9
:04000E00E401FF18F2
:00000001FF
